:020000040800F2
:10000000900A0020DD0100089139000895300008B1
:1000100015390008C5080008394300080000000031
:10002000000000000000000000000000613B00082C
:100030009D09000800000000BD390008633B00086E
:10004000F7010008F7010008F7010008F7010008B0
:10005000F7010008F7010008F7010008F7010008A0
:10006000F7010008F7010008F7010008F701000890
:10007000C9080008F7010008D5080008F7010008C2
:10008000F7010008F7010008F7010008F701000870
:10009000F7010008F7010008F7010008F701000860
:1000A000F7010008F7010008F7010008F701000850
:1000B000F7010008F7010008F7010008F701000840
:1000C000F7010008F7010008F7010008F701000830
:1000D000C1390008F7010008F701000821430008B2
:1000E000F7010008F7010008F7010008F701000810
:1000F000F7010008F7010008F7010008F701000800
:10010000F7010008F7010008F7010008F7010008EF
:10011000F7010008F7010008193C0008253C000819
:10012000F7010008E1080008F7010008F7010008DE
:10013000F70100080000000000000000F7010008BF
:10014000F7010008F7010008F7010008F7010008AF
:10015000F7010008ED080008F70100082D4300082A
:10016000F7010008F7010008F7010008F70100088F
:10017000F7010008F7010008F7010008000000007F
:1001800000000000F701000800000000000000006F
:10019000F70100080000000000000000F70100085F
:1001A000000000000000000000000000F70100084F
:1001B000F7010008F7010008F7010008F70100083F
:1001C000F7010008DFF810D000F066FA0048004799
:1001D00069590008AFF30080900A00200648804764
:1001E00006480047FEE7FEE7FEE7FEE7FEE7FEE71C
:1001F000FEE7FEE7FEE7FEE7093C0008C501000850
:100200002DE9F05F0546002092469B46884606464B
:10021000814640241BE0284641464746224600F0DE
:1002200071F853465A46C01A914110D311461846E8
:10023000224600F058F82D1A67EB01084F46224677
:100240000120002100F04FF817EB00094E41201E5D
:10025000A4F10104DFDC484631462A464346BDE8A6
:10026000F09FD2B201E000F8012B491EFBD270478B
:100270000022F6E710B513460A4604461946FFF772
:10028000F0FF204610BD421C10F8011B0029FBD1D5
:10029000801A704700F0004230F000400AD0C10DD3
:1002A00001F56071C0F3160042EA0151C20840072F
:1002B0001143704700200146704730B50B46014698
:1002C00000202022012409E021FA02F59D4205D3F5
:1002D00003FA02F5491B04FA02F52844151EA2F19F
:1002E0000102F1DC30BD202A04DB203A00FA02F1E1
:1002F000002070479140C2F1200320FA03F3194314
:1003000090407047202A04DB203A21FA02F00021B5
:10031000704721FA02F3D040C2F120029140084315
:10032000194670472DE9FE4F804681EA0300C00F51
:100330000C46009021F0004123F00045B8EB02008C
:10034000A94105D24046214690461C460B4602462E
:1003500023F00040104347D0270DC7F30A00C3F332
:100360000A510290401A019040286BDAC3F313003F
:1003700040F4801B0098924620B10023D2EB030A80
:1003800063EB0B0B01985946C0F140025046FFF752
:10039000AAFF06460D4650465946019A00F08EF9CE
:1003A00010EB08006141002487EA115284EAE773E8
:1003B0001A4340D0009A62B3019A012A4FEA0752C9
:1003C00015DC001B61EB02014FF0004202EA07520C
:1003D000CDE90042001C41F5801132462B4600F069
:1003E0008EF903B0BDE8F08F40462146F9E7001BC7
:1003F00061EB0201001C41F5801300185B412018DD
:10040000A2F5001747EB030140EAD570B6196D411C
:1004100011E06D084FEA360645EAC0754FEA07520B
:10042000001B61EB0201001C41F5801149084FEAF5
:1004300030000019514132462B4603B0BDE8F04F61
:1004400000F04EB90098012240000023D0EB0202D8
:1004500063EBE073009821464FEAE074B8EB0000CC
:1004600061EB0401E9E783F000435BE781F00041C1
:1004700058E72DE9FE4F81EA030404F0004421F01F
:10048000004100944FF0000B23F0004350EA0104B8
:100490005ED052EA03045BD0C3F30A54C1F30A5599
:1004A0002C44A4F2F3340194A0FB0254C1F31301D1
:1004B00041F48011C3F3130343F4801301FB02449E
:1004C00000FB034E840A970A44EA815447EA8357A3
:1004D000A4FB076802958D0A05FB07854FEA932C5C
:1004E00004FB0C542705029D4FEA065847EA1637CD
:1004F000B5EB08056EEB070C870E920E47EA8117E5
:1005000042EA8312A7FB0201B6EB0B0164EB000485
:100510002B0D43EA0C335E1844EB1C50DA4651466F
:10052000E7FB0201C5F313044FEA0B3343EA14530C
:100530004FEA0432019C43EA0603A4F10C0402943E
:10054000009CCDE900B400F0DAF803B0BDE8F08F0C
:1005500000200146F9E72DE9F04D81EA030404F09B
:10056000004B21F0004514464FF0000A23F00041F3
:1005700050EA050220D054EA01021DD0C5F30A5703
:100580000246C5F31303C1F31300C1F30A5640F446
:10059000801543F48013A7EB0608101BD64608F21B
:1005A000FD3873EB050002D308F1010801E0921851
:1005B0005B41B8F1000F03DA00200146BDE8F08D81
:1005C00000204FF48011064684460EE0171B73EBA3
:1005D000050705D3121B63EB050306434CEA010C28
:1005E00049084FEA300092185B4150EA0107EDD10B
:1005F00052EA030012D082EA040083EA05010843AC
:1006000005D0101BAB4106D20122002306E00022D8
:100610004FF0004302E06FF0010253101AEB0600A6
:100620004CEB085110EB0A0041EB0B01BDE8F04D1B
:1006300000F056B8C1F30A52C1F3130140F2FF3380
:1006400041F480119A4202DA00200146704740F2DC
:1006500033439A42A2F2334202DC5242FFF752BEC7
:10066000FFF741BE30B5041E71F1000404DB4FF00A
:100670000044404264EB0101141E73F1000405DBE9
:100680001C464FF00043524263EB0403994208BFFB
:10069000904230BD00207047064C074D06E0E068F0
:1006A00040F0010394E8070098471034AC42F6D3B9
:1006B000FFF78CFDE45B0008045C0008202A06DBE1
:1006C000CB17203A41FA02F043EAE07306E041FA20
:1006D00002F3D040C2F1200291400843194670470E
:1006E00010B5141E73F1000408DA401C41F100013A
:1006F00092185B411A4301D120F0010010BD2DE991
:10070000F04D92469B4611B1B1FA81F202E0B0FA87
:1007100080F220329046FFF7E6FD04460F4640EA9D
:100720000A0041EA0B0153465A46084313D01146CA
:1007300053EA010019D0C8F140025046FFF7E2FD2C
:1007400005460E46504659464246FFF7CCFD084343
:1007500005D0012004E020463946BDE8F08D002098
:10076000054346EAE0762C4337430A986305E40ADA
:10077000A0EB08000022FD0A44EA47540A3002D5E3
:1007800000200146E9E7010510196941DDE9084546
:1007900000196941BDE8F04DA2E70000464910B5D7
:1007A0004A6822F440324A604A6843681A434A6001
:1007B00001684A6822F480724A6001684A680369E5
:1007C00042EA03224A6001684A6822F040724A60A5
:1007D00001684A6883681A434A6001688A6822F49B
:1007E00000628A6001688A68C3681A438A60816A05
:1007F0006FF07062D14201688A6822F070628A608C
:1008000001688A680CD0836A1A438A6001688A6822
:1008100022F040528A6001688A68C36A1A4301E084
:1008200022F040528A6001688A6822F002028A60DF
:1008300001688A68037E42EA43028A6090F82010C9
:10084000002901684A680FD042F400624A600168DA
:100850004A6822F460424A6001684A68174C436A59
:1008600004EB43331A4301E022F400624A6001685A
:10087000CA6A22F47002CA620168CA6A838B104C89
:1008800004EB03531A43CA6201688A6822F40072B7
:100890008A6001688A6890F8303042EA43228A60B0
:1008A00001688A6822F480628A6001688A68406907
:1008B00042EA8020886010BD0023014000E0FFFF75
:1008C0000000F0FFFEE70000014800F0E7B900007B
:1008D00024030020014800F0E1B90000C402002018
:1008E000014800F0DBB9000084030020014800F05B
:1008F000D5B90000E403002001681823CAB2103AF9
:10090000B2FBF3F2054B6FF30901032A9B5CC3654D
:1009100000D9091D8165084670470000845A000807
:1009200010B5014600208B698A6A4FF0C07453B13C
:10093000B3F5005F15D072B1012A0CD0022A0AD09B
:10094000032A09D104E01AB1012A06D0022A03D1F0
:10095000C96AC90100D5012010BDC96AA142FAD0F7
:1009600010BD002AF7D0012AF2D0022AF3D0032AC0
:10097000F3D010BD30B50468256825F480252560C6
:10098000046863608368402B036803D09960006843
:10099000C26030BD9A600068C16030BD7047000021
:1009A00003480168486A002200B24A6270470000AA
:1009B000CC00002003480168486A002200B24A6265
:1009C000704700005C01002072B6FEE778B5002495
:1009D000009490F83C20012A19D0012280F83C2094
:1009E0000A6807250368092A13D9DE680A3A02EB68
:1009F00042029540AE43DE600A788B680A3A02EB09
:100A0000420293400268D5682B43D36010E0022075
:100A100078BD1E6902EB42029540AE431E610A7822
:100A20008B6802EB42029340026815692B43136105
:100A30004A681F25072A13D203685E6B521E02EB19
:100A400082029540AE435E630A8893B20A79521ED1
:100A500002EB820293400268556B2B43536327E0FD
:100A600003680D2A12D21E6BD21F02EB8202954040
:100A7000AE431E630A8893B20A79D21F02EB820248
:100A800093400268156B2B43136311E0DE6A0D3A45
:100A900002EB82029540AE43DE620A8893B20A7985
:100AA0000D3A02EB820293400268D56A2B43D3626F
:100AB0001B4B0568194A9D420AD10D68122D07D1BA
:100AC000556825F400055560556845F48005556066
:100AD00005689D421DD1134D0B68AB4201D0112B0F
:100AE00017D1536823F480035360536843F4000321
:100AF00053600968A9420CD10B490C4A0968B1FB43
:100B0000F2F101EB8101490000E0491E009100294A
:100B1000FBD180F83C40002078BD0000002301405C
:100B200000200140120000100C00002040420F0085
:100B300070B504004FF0000603D0206C002510B102
:100B400007E0012070BD204600F01CF8656484F8C1
:100B50003C50206CC00610D4206C20F4885040F02B
:100B6000020020642046FFF719FE6564206C20F027
:100B7000020040F00100206400E0012684F83C50AF
:100B8000304670BD10B586B0044614216846FFF7A4
:100B90006FFB1149206888421CD11048002102686F
:100BA00042F480720260006800F4807005900B4887
:100BB0001438026842F001020260006800F001008F
:100BC0000590042000900320CDE901016946044806
:100BD00000F0E8F906B010BD0020014044380240A2
:100BE000000002402DE9F0410446876D00F0C0FA94
:100BF000054694F835000026022806D0802060655E
:100C000084F834600120BDE8F0812068016821F09B
:100C1000160101602068416921F080014161206C6A
:100C200008B9A06C20B12068016821F008010160BA
:100C30002068016821F0010101600CE000F098FAE1
:100C4000401B052807D920206065032084F8350063
:100C500084F83460D7E720680068C007EED194F8C4
:100C60005C103F208840B860012084F8350084F88B
:100C700034600020C7E790F83510022903D08021A6
:100C8000416501207047052180F835100068016832
:100C900021F0010101600020704700002DE9F843B8
:100CA00004464FF00009CDF8009063484FF4165108
:100CB000A56D0068B0FBF1F72E6894F85C20082160
:100CC00001FA02F030420FD02068026852070BD5BB
:100CD000026822F00402026094F85C008140A9607E
:100CE000606D40F00100606594F85C104FF0010801
:100CF00008FA01F0304208D021684969090604D594
:100D0000A860606D40F00200606594F85C100420FB
:100D10008840304208D021680968890704D5A86056
:100D2000606D40F00400606594F85C10102088400D
:100D3000304218D021680968090714D5A8602068D6
:100D40000168490304D50068000308D5A16C07E0D9
:100D50000168C90503D4016821F008010160216C14
:100D600009B12046884794F85C1020208840304222
:100D700031D021680968C9062DD5A86094F83500DE
:100D800005282068016806D0490347D5006800039C
:100D90001DD4616C1CE021F01601016020684169DE
:100DA00021F080014161206C08B9A06C20B120685D
:100DB000016821F00801016094F85C103F20884030
:100DC000A86084F8358084F83490216D1FE0E16BD1
:100DD00009B120468847606D00282BD0606DC007A0
:100DE00014D0052084F835002068016821F0010145
:100DF00001600098401C0090B84203D82068006849
:100E0000C007F6D184F8358084F83490E16C00296D
:100E100010D001B02046BDE8F04308470168C9057D
:100E2000D5D4016821F01001016084F8358084F880
:100E30003490CCE7BDE8F8830C0000202DE9F041A8
:100E4000044600F095F905465CB1022084F83500AF
:100E5000002684F834602068016821F001010160F7
:100E60000DE00120BDE8F08100F082F9401B05286B
:100E700005D920206065032084F83500F2E720685A
:100E80000068C007F0D121680A6820480240D4E910
:100E900001031843D4E903352B431843636918430E
:100EA000A3691843E3691843236A18431043626A2D
:100EB000042A03D1D4E90B231A43104308602068A5
:100EC0004069656A20F0070128460D430127042880
:100ED0000CD1A06A0543E06A40B12046FFF720FD2F
:100EE00020B14020606584F83570BAE7206845611C
:100EF0002046FFF701FD94F85C203F21914081607E
:100F0000666584F835700020ACE700003F8010F083
:100F10002DE9F0410446866D90F834000025012843
:100F20000DD0012084F8340094F835700020012F92
:100F300007D084F8340002252846BDE8F08102205D
:100F4000FBE7022784F8357060652046FFF712FD45
:100F500094F85C103F208840B0602068016841F040
:100F600016010160206C20B12068016841F0080181
:100F700001602068016841F001010160DCE70000C8
:100F800070B5044600F0F4F80546601C02D0044831
:100F90000078044400F0ECF8401BA042FAD370BD86
:100FA000000000202DE9F84FDFF890910022A9F110
:100FB000040B03274FF00F0C09F1040AABF1040EE8
:100FC00001250B6895402B40AB426ED10C7904F0A3
:100FD0000304012C01D0022C15D18668540007FAB5
:100FE00004F826EA0806D1F80C8008FA04F848EA62
:100FF0000608C0F808804468AC430D79C5F30015B5
:101000009540254345600C79E443A40708D0C568A2
:10101000540007FA04F6B5438E68A6402E43C66016
:101020000C7904F00304022C11D1D40800EB8406DF
:10103000356A5407E40E0CFA04F825EA0805D1F8DD
:10104000108008FA04F848EA0508C6F82080056808
:10105000540007FA04F6B5430E7906F00306A640DD
:101060002E4306604C6814F4403F61D0344C256830
:1010700045F480452560246822F0030504F480448B
:101080000094304C05EB0408D8F808589407260F54
:101090000CFA06F4A5432C4CA04201D100241FE019
:1010A0002A4CA04202D101241AE041E0284CA0427F
:1010B00001D1022414E0274CA04201D103240FE007
:1010C000254CA04201D104240AE0244CA04201D1C5
:1010D000052405E0224CA04201D1062400E00724AB
:1010E000B4402C43C8F80848D9F800404D464E6833
:1010F0009C43F60200D51C432C60DAF800405546AC
:101100004E689C43B60200D51C432C60DBF80040BF
:101110005D464E689C43B60300D51C432C60DEF848
:10112000004075464E689C43F60300D51C432C6076
:10113000521C102AFFF444AFBDE8F88F083C014070
:1011400044380240003001400000024000040240E8
:1011500000080240000C024000100240001402404F
:10116000001802400AB1816170470904FBE70000E2
:101170000148806870470000000000200248816834
:101180000278114481607047000000200B4810B5C0
:10119000016841F400710160016841F480610160FF
:1011A000016841F480710160032000F06FF80F20A6
:1011B00000F006F800F024F8002010BD003C0240CA
:1011C00070B50D4D04464FF47A712878B1FBF0F0FC
:1011D0000A490968B1FBF0F000F0F5FE48B9102C9F
:1011E00007D200222146501E00F030F800206C602B
:1011F00070BD012070BD0000000000200C00002028
:101200000A4808B5016841F480410160006800F4B3
:10121000804000900548001F016841F08051016046
:10122000006800F08050009008BD00004438024083
:10123000002809DB00F01F020121914040098000D5
:1012400000F1E020C0F8001170470000F0B40E4B30
:101250001B68C3F30223C3F10704042C00D9042440
:101260001D1D072D01D2002300E0DB1E012606FA1A
:1012700004F56D1E0D409D409E40761E164045EAC9
:101280000601F0BC03F087B80CED00E0064A00F060
:10129000070110684FF6FF03184040EA0120034998
:1012A00008431060704700000CED00E00000FA05F4
:1012B0002DE9F8431748016841F08051016000684A
:1012C000DFF8548000F0805001270090C8F840708B
:1012D000FFF74EFF04464FF47A75104E04E0FFF717
:1012E00047FF001BA8420DD87068C003F7D5C8F8A7
:1012F0004470FFF73DFF044607E0FFF739FF001B8E
:10130000A84202D90320BDE8F88370688003F4D5B1
:101310000020F8E74038024000000E420070004014
:101320002DE9F0470D46040065D0DFF81491D9F897
:101330000000EFB200F00F00A84207D289F8007059
:10134000D9F8000000F00F00A84254D120683D4EAB
:10135000810712D5400703D5306840F4E050306073
:101360002078000703D5306840F460403060306872
:10137000A16820F0F000084330602078C0072DD02D
:10138000304960680839012812D0022813D0032898
:1013900011D00968890700292DDA316821F003018D
:1013A00001433160FFF7E4FE804641F2883A0EE0E7
:1013B00009688903EFE709688901ECE7FFF7D8FEC0
:1013C000A0EB0801514502D90320BDE8F087306841
:1013D000616800F00C00B0EB810FEFD1D9F800107C
:1013E000484601F00F01A94207D90770006800F0D4
:1013F0000F00A84201D00120E7E72078400705D57B
:101400003068E16820F4E05008433060207800073D
:1014100006D53068216920F4604040EAC1003060A0
:1014200000F038F83168084AC1F30311515CC84034
:101430000649086006480068FFF7C2FE0020C4E7BE
:10144000003C0240083802408C5A00080C00002082
:10145000040000200448054900680968044AC1F3F3
:101460008221515CC84070470C00002008380240BF
:101470009C5A00080448054900680968044AC1F3F9
:101480004231515CC84070470C00002008380240CF
:101490009C5A0008224810B5006810F00C01214841
:1014A00015D0214B042911D01D4C241F08290FD021
:1014B0000C290CD1216801F03F022168490221D595
:1014C0002068C0F38810A0FB030120E0184610BD7F
:1014D000216801F03F022168490205D52068C0F368
:1014E0008810A0FB030104E02168C1F38811A1FB6F
:1014F00000010023FEF784FE2168C1F30141491C6D
:1015000049000AE02168C1F38811A1FB0001002312
:10151000FEF776FE2168C1F30271B0FBF1F010BD59
:10152000083802400024F40040787D012DE9F84F8E
:10153000040078D02078DB4EC007A6F104054ED019
:10154000301D0168C1F3810101290FD00168C1F389
:101550008101022902D13168490207D40068C0F331
:101560008100032809D13068400206D5286880032D
:1015700035D560680028DCD031E06068B0F5803F88
:1015800010D0B0F5A02F286810D020F4803028604B
:10159000286820F4802028606068A0B1FFF7E8FD8B
:1015A00007460CE0286840F48030F4E740F48020DF
:1015B0002860F7E7FFF7DCFDC01B642875D82868B2
:1015C0008003F7D50BE0FFF7D3FD074604E0FFF7F4
:1015D000CFFDC01B6428F1D828688003F7D4207899
:1015E000DFF8C4A280074FF0000B44D5AD48001DC2
:1015F000016811F00C0F0FD00168C1F381010229BD
:1016000002D13168490207D50068C0F38100032880
:101610000AD13068400207D42868800715D5E068F1
:10162000012800D111E038E1E068B0B10120CAF82A
:101630000000FFF79DFD074604E0FFF799FDC01B82
:101640000228BBD828688007F7D52868216920F0D0
:10165000F80040EAC10028600DE0CAF800B0FFF7CA
:1016600087FD074604E0FFF783FDC01B02281CD856
:1016700028688007F7D42078000726D5DFF8248271
:101680008A48616908F1700881B101210160FFF7A2
:101690006FFD074604E0FFF76BFDC01B022804D86E
:1016A000D8F800008007F6D50FE089E0C0F800B058
:1016B000FFF75EFD074604E0FFF75AFDC01B022856
:1016C0007ED8D8F800008007F6D42078400769D586
:1016D00074484FF000093C300068C0000BD47148DA
:1016E0003C30016841F08051016000684FF0010911
:1016F00000F0805000906E480168C90511D401685F
:10170000804641F480710160FFF732FD074604E036
:10171000FFF72EFDC01B022852D8D8F80000C005E4
:10172000F6D5604FA0686C3701280FD005283868BF
:1017300010D020F001003860386820F004003860D4
:10174000A068B8B1FFF714FD80460FE0386840F09C
:101750000100F4E740F004003860F7E7FFF708FD08
:10176000A0EB080141F28830814263D838688007D5
:10177000F4D50EE0FFF7FCFC804607E0FFF7F8FC2D
:10178000A0EB080141F28830814253D838688007C5
:10179000F4D4B9F1000F05D042483C30016821F083
:1017A00080510160A069B0B33E49091D0968C1F3C9
:1017B0008101022945D00228CAF860B005D000E0B6
:1017C00038E0FFF7D5FC044637E0FFF7D1FC0746C9
:1017D00004E0FFF7CDFCC01B02282BD8286880014D
:1017E000F7D4F4E907010843E168324A490802EBFB
:1017F0000141A26841EA82110843217C40EA01606C
:10180000217D40EA017030600120CAF86000FFF7D6
:10181000AFFC044605E042E0FFF7AAFC001B0228EB
:1018200008D828688001F7D539E0FFF7A1FC001B34
:10183000022802D90320BDE8F88F28688001F4D47B
:101840002DE00128F7D03068E26900F48001914270
:1018500023D1226A00F03F0191421ED147F6C071A8
:10186000626A0140B1EB821F17D1A26A4FF0FF33C9
:1018700000F4403103EB5202B1EB024F0DD194F86A
:101880002C2000F07061B1EB026F06D194F830109B
:1018900000F0E040B0EB017F01D00120CBE7002059
:1018A000C9E700000438024000004742800E47426A
:1018B000007000400000FFFF7047000038B501686D
:1018C00004464A688868C043430606D5C30704D166
:1018D000D3435B0601D4216C05E0830708D4D343CE
:1018E0001B0605D4616C01B02046BDE830400847B6
:1018F000830603D5430601D5C30551D4D3439B06C4
:101900004ED443060AD494F85130032B49D0636D6A
:1019100043F004036365CB688B680093830609D4A6
:10192000636D43F0010363658B6800930B6823F0DC
:1019300040030B60C00506D4606D40F00800606590
:10194000206880680090606D002829D02068416878
:1019500021F0E0014160012084F85100900701D49A
:10196000D00722D02068416821F003014160114D69
:10197000E06C40B10565E06CFFF77DF918B1606D72
:1019800040F040006065A06C002809D00565A06C9F
:10199000FFF771F9002803D0606D40F040006065EA
:1019A00038BDC8688868009038BD2046FFF784FFBE
:1019B00038BD0000CD39000870B5040009D0606A58
:1019C000002540B125616561A56294F8510040B1E0
:1019D0000CE0012070BD6068B0F5827FF4D0E56155
:1019E000F2E784F85050204600F044F8022084F8D2
:1019F00051002068016821F040010160A088218920
:101A000000F4827001F404410843A18901F40061EB
:101A10000843217C01F002010843217D01F001010E
:101A20000843218B01F400710843217F01F0380144
:101A3000084394F8201001F080010843218D01F43F
:101A40000051084321680860A069042101EA1040A0
:101A500094F8241001F010010843216848602068C0
:101A6000C16921F40061C1616565012084F85100FC
:101A7000002070BD2DE9F04186B00446142168466F
:101A8000FEF7F6FB23492068884240D12248002512
:101A9000016841F480410160006800F480400590D5
:101AA0001D481038016841F004010160016801F02F
:101AB00004010591016841F00201016000680224FF
:101AC00000F002000094059003260720CDE9036092
:101AD000DFF8488069464046CDE90145FFF762FAE4
:101AE000042005278DE8F10069464046FFF75AFAC1
:101AF00020038DE8F10069460948FFF753FA0022F8
:101B000011462420FFF7A2FB2420FFF791FB06B02B
:101B1000BDE8F08100380040403802400008024033
:101B2000000402402DE9F84F044690F85100884621
:101B30001D46174601283BD1B8F1000F78D0002F81
:101B400076D060684FF00409B0F5827F01D1A068BB
:101B500018B3FFF70DFB064694F85000012827D074
:101B60004FF0010A84F850A084F851904FF000091A
:101B7000C4F85490C4F83880A787E787C4F8309039
:101B8000A4F83490A4F83690C4F84090C4F8449077
:101B9000A068B0F5004F0DD016E084F85190009386
:101BA000134642461146204600F01AF9BDE8F88F68
:101BB0000220FBE72068016821F0400101602068F5
:101BC000016821F48041016020680168490603D45E
:101BD000016841F040010160E068B8B132E020687E
:101BE0008168C90709D0007BA16B0870A06B401CFD
:101BF000A063E08F401EE08708E0FFF7B9FA801B82
:101C0000A84202D3681C01D031E07DB3E08F0028E8
:101C1000E5D11AE020688168C9070AD0C068A16BC5
:101C20000880A06B801CA063E08F401EE08709E065
:101C30001AE0FFF79DFA801BA84202D3681C01D06E
:101C400015E09DB1E08F0028E4D1324629462046B8
:101C500001F0C4FE08B12020606584F851A084F82A
:101C60005090606D0028A1D001209FE7FFE784F825
:101C700051A084F85090032098E72DE9F84F1D46B5
:101C800017468A460446FFF773FA064694F8510051
:101C9000012826D1BAF1000F77D0002F75D094F823
:101CA000500001281DD04FF0010984F85090032006
:101CB00084F851004FF00008C4F85480C4F830A0F4
:101CC000A786E786C4F83880A4F83C80A4F83E8054
:101CD000C4F84480C4F84080A068B0F5004F03D039
:101CE0000CE00220BDE8F88F2068016821F0400177
:101CF00001602068016841F480410160206801684A
:101D0000490603D4016841F040010160E068B0F584
:101D1000006F606803D028B3012F23D03FE008B1E3
:101D2000012F1BD1206B21680088C86006E0206865
:101D30008168890709D5216B0988C160206B801CE7
:101D40002063E08E401EE08608E0FFF711FA801B5A
:101D5000A84202D3681C01D02FE075B3E08E0028A2
:101D6000E5D11FE0206B21680078087306E0206849
:101D7000816889070AD5216B09780173206B401CA3
:101D80002063E08E401EE08609E027E0FFF7F0F9CF
:101D9000801BA84202D3681C01D00EE06DB1E08E1A
:101DA0000028E4D132462946204601F045FE08B11C
:101DB00020206065A06830B109E084F8519084F873
:101DC000508003208EE72068C1688068009084F806
:101DD000519084F85080606D002883D0012081E705
:101DE0002DE9FF4F81B01F469346044601250E9E04
:101DF000FFF7BEF9804694F851006168012806D0CB
:101E0000B1F5827F3CD1A168C9BB042838D10298C2
:101E1000002870D0BBF1000FFBD0002FF9D094F850
:101E2000500001282CD04FF0010A84F850A094F8FB
:101E30005100042802D0052084F851004FF0000919
:101E4000C4F85490C4F838B0E787A7870299216393
:101E5000E786A786C4F84090C4F8449020680168DB
:101E6000490603D4016841F040010160E068B0F523
:101E7000006F606808D0E8B3012F47D07DE0FFE72E
:101E8000022005B0BDE8F08F08B1012F37D1206BDB
:101E900021680088C860206B801C2063E08E401E93
:101EA000E0862CE02068816889070DD5E18E59B164
:101EB000012D09D1216B0988C160206B801C206332
:101EC000E08E401EE086002520688168C9070BD09F
:101ED000E18F49B1C068A16B0880A06B801CA06332
:101EE000E08F401EE0870125FFF742F9A0EB0800D4
:101EF000B04201E00AE064E001D3701C4ED1E08EF4
:101F00000028CFD1E08F0028CCD13CE0206B2168A5
:101F100000780873206B401C2063E08E401EE08632
:101F20002BE02068816889070DD5E18E59B1012D1C
:101F300009D1216B09780173206B401C2063E08E6E
:101F4000401EE086002520688168C9070BD0E18F1C
:101F500049B1C068A16B0870A06B401CA063E08F02
:101F6000401EE0870125FFF703F9A0EB0800B0420F
:101F700002D3701C01D011E086B1E08E0028D0D1D0
:101F8000E08F0028CDD142463146204601F054FD75
:101F900050B12020606584F8509012E084F851A080
:101FA00084F8509003206CE7A06818B92068C168D5
:101FB0008068009084F851A084F85090606D0028EB
:101FC000F1D001205DE710B5401EB0F1807F01D354
:101FD000012010BD4FF0E02460610F21601702F076
:101FE000DAF90020A06107202061002010BD7047B1
:101FF0007047000070B590F83C20012A32D00125CE
:1020000080F83C50022280F83D20026853689468B2
:1020100023F070060B6833435360134B02689A42F7
:1020200014D0B2F1804F11D0104B9A420ED0104B09
:102030009A420BD00F4B9A4208D00F4B9A4205D0D0
:102040000E4B9A4202D00E4B9A4204D1496824F0BA
:1020500080031943916080F83D50002180F83C10C6
:10206000084670BD022070BD000001400004004021
:1020700000080040000C0040000401400040014006
:102080000018004010B5040003D094F83D0010B1D2
:1020900007E0012010BD002084F83C00204600F03D
:1020A0001FF8022084F83D00211D206801F0C0FDCA
:1020B000012084F8460084F83E0084F83F0084F84C
:1020C000400084F8410084F8420084F8430084F81A
:1020D000440084F8450084F83D00002010BD000055
:1020E00008B50068144A154990420ED1086840F0BE
:1020F000100008600868002200F0100000901146EF
:102100003620FFF7A3F8362010E00D4A904211D197
:10211000086840F0200008600868002200F02000F5
:10212000009011463720FFF791F83720BDE80840AE
:10213000FFF77EB808BD00000010004040380240A4
:102140000014004090F83D10012901D00120704793
:10215000022180F83D100168CA6842F00102CA609D
:1021600000681149884214D0B0F1804F11D00F4956
:1021700088420ED00E4988420BD00E49884208D0C2
:102180000D49884205D00D49884202D00C49884249
:1021900004D1816801F00701062903D0016841F0EC
:1021A0000101016000207047000001400004004070
:1021B00000080040000C00400004014000400140C5
:1021C000001800402DE9F0410D46040003D094F8BA
:1021D0003D0018B108E00120BDE8F081002084F83E
:1021E0003C00204600F040F8022084F83D002068C2
:1021F000816844F2070291438160211D206801F04B
:1022000017FD206881688269066A2B68AF690B43F5
:1022100040F203318A4342EA0722A968EF69114379
:102220004FF6FC429143EA6841EA07210A432969D3
:102230002F6A090141EA073111436A686D6926F086
:10224000AA0646EA05152A4383602068816154F88E
:10225000460B0262012004F81F09E0752076E07643
:102260002077A0750020B7E730B587B00446142169
:102270006846FDF7FDFF2049206800241E4A1039FA
:102280000223B0F1804F1DD01C4DA84218D1106818
:1022900040F004001060106800F004000590086829
:1022A00040F0020008600868694600F002000590EE
:1022B000C0208DE81900CDE903431148FEF772FEF6
:1022C00007B030BD106840F001001060106800F0E9
:1022D00001000590086840F0010008600868694640
:1022E00000F00100059003208DE819000120CDE9E0
:1022F00003400448E2E70000403802400008004084
:10230000000402400000024070472DE9F0410446FD
:102310000068C66805694FF00007A90713D5B10723
:1023200011D5F91E0161012020772068806980079E
:10233000204602D0FFF7E8FF04E000F0BBF820469B
:1023400000F060F92777680716D5700714D5216863
:102350006FF004000861022020772068806910F483
:10236000407F204602D0FFF7CFFF04E000F0A2F844
:10237000204600F047F92777280715D5300713D5F1
:1023800021686FF008000861042020772068C06988
:102390008007204602D0FFF7B7FF04E000F08AF87C
:1023A000204600F02FF92777E80616D5F00614D559
:1023B00021686FF010000861082020772068C0694C
:1023C00010F4407F204602D0FFF79EFF04E000F0AB
:1023D00071F8204600F016F92777E80708D0F007D3
:1023E00006D021686FF001000861204600F074F902
:1023F000280608D5300606D521686FF080000861F0
:102400002046FFF7F4FD680608D5700606D521685A
:102410006FF040000861204600F0D6F9A8060AD502
:10242000B00608D521686FF0200008612046BDE89D
:10243000F041FFF7DDBDBDE8F081000030B587B0A9
:10244000044614216846FDF713FF164920688842A8
:1024500026D115480024016841F00101016001689E
:1024600001F001010591016841F00201016000687D
:10247000022500F002000590C0200090CDE9015433
:1024800069460A48CDE90345FEF78CFD032000901C
:10249000CDE9015469460648CDE90345FEF782FDC2
:1024A00007B030BD00040040303802400000024058
:1024B00000040240704770B5044690F83C000026C6
:1024C0000D4601280FD0012084F83C006AB1042A8F
:1024D0001DD0082A2FD00C2A3FD00126002084F8D6
:1024E0003C00304670BD022070BD206801F016FC33
:1024F0002068816941F0080181612068816921F0CB
:1025000004018161206881692A69114311E0206812
:1025100001F034FC2068816941F400618161206828
:10252000816921F480618161206881692A6941EAB9
:1025300002218161D2E7206801F056FC2068C16960
:1025400041F00801C1612068C16921F00401C16145
:102550002068C1692A69114311E0206801F078FC04
:102560002068C16941F40061C1612068C16921F43A
:102570008061C1612068C1692A6941EA0221C161A3
:10258000ACE710B5040003D094F83D0010B107E0AB
:10259000012010BD002084F83C00204600F01EF809
:1025A000022084F83D00211D206801F041FB01203C
:1025B00084F8460084F83E0084F83F0084F8400028
:1025C00084F8410084F8420084F8430084F8440011
:1025D00084F8450084F83D00002010BD08B500686F
:1025E0000649884208D10648016841F002010160AD
:1025F000006800F00200009008BD000000040040E8
:10260000403802407047000010B5044649B1042923
:102610000AD008290BD094F8410001280AD00120E3
:1026200010BD94F83E00F8E794F83F00F5E794F801
:102630004000F2E70220B1B3042938D0082939D08C
:1026400084F841000122206801F05AFB1B492068F0
:102650001B4A884201D0904203D1436C43F40043AB
:1026600043642068884213D0B0F1804F10D01549E0
:1026700088420DD0144988420AD01449884207D0B4
:10268000904205D01249884202D01249884204D1B2
:10269000816801F00701062903D0016841F00101BA
:1026A0000160002010BDFFE784F83E00CAE784F80F
:1026B0003F00C7E784F84000C4E700000000014085
:1026C000000401400004004000080040000C0040ED
:1026D00000400140001800402DE9F0412DED028B33
:1026E000BCB000682649884244D1DFF8988098F849
:1026F0000100D8B138A800F00BFD3A98FDF7CAFDEB
:1027000004460D463998FDF7C5FD06460F46389834
:10271000FDF7C0FD8DE8C3001BA2C82106A8CDE9C6
:10272000044501F00BFE06A803F094F998F80000A8
:1027300000281FD0FEF734F900EE100AB8EEC08A68
:10274000FEF738F900EE100AB8EEC00A10EE100AD3
:10275000FDF7A0FD04460D4618EE100AFDF79AFDA0
:102760008DE8330014A2322104A801F0E7FD04A88B
:1027700003F070F93CB0BDEC028BBDE8F0810000C5
:1027800000140040100000204D435520494E464F94
:102790003A20526F6C6C3A20252E32662C205069FC
:1027A0007463683A20252E32662C205961773A20CE
:1027B000252E32660D0A000053504545443A202527
:1027C000662025660D0A00007047704710B5044664
:1027D0000068406994F84110C0F3C010212911D15C
:1027E00080B12068143050E8001F21F0800140E8DB
:1027F0000012002AF5D1A06B08B1FEF7F3F92046CC
:1028000001F0F3FB2068406994F84210C0F3801097
:10281000222911D180B12068143050E8001F21F026
:10282000400140E80012002AF5D1E06B08B1FEF744
:10283000D9F9204601F0B2FB002010BD704700001E
:10284000F8B5016804460868CA684B6910F00F0FB4
:102850004FF0000559D003F0010602F4907737439A
:1028600065D0C10705D0D10503D5616C41F00101E8
:102870006164410705D5D90703D0616C41F00201BD
:102880006164810705D5D90703D0616C41F004016B
:102890006164010707D502F02001314303D0616C68
:1028A00041F008016164616C00293AD0800604D5CA
:1028B000900602D5204601F0A6FB20684069616CB5
:1028C000C0F38010090700D460B3204601F066FB16
:1028D00020684069400621D52068143050E8001F68
:1028E00021F0400140E80012002AF5D1E06BA8B1C8
:1028F00072490165E06BFEF7BEF9002811D0E06B6C
:10290000016D01B0BDE8F040084783060FD593067E
:102910000DD52046BDE8F84001F075BB2046FFF715
:102920008DFFF8BD2046FFF789FF6564F8BD266B73
:102930002023012E7ED1C6067CD5D6067AD508681E
:102940004868009048694FF0020640064DD5E26B9A
:10295000106840684FF480770004000C3AD0A18DD5
:10296000814237D9E085D069B8422DD020680C303B
:1029700050E8001F21F4807140E80012002AF5D1D0
:102980002068143050E8001F21F0010140E80012D7
:10299000002AF5D12068143050E8001F21F04001D2
:1029A00040E80012002AF5D184F8423025632068FF
:1029B0000C3050E8001F21F0100140E80012002AFE
:1029C000F5D1E06BFEF70EF96663A08DE18D401A3C
:1029D00081B206E0A18D8142A8D1D069B842A5D1CB
:1029E00066632046FFF7F1FEF8BDA08DE18D401A29
:1029F00081B2E08D0028F7D00029F5D020680C3096
:102A000050E8002F22F4907240E80027002FF5D103
:102A10002068143050E8002F22F0010240E800271F
:102A2000002FF5D184F84230256320680C3050E83F
:102A3000002F00E006E022F0100240E80023002B07
:102A4000F3D1CDE705062BD5150629D594F841001D
:102A50002128C9D1A068B0F5805F01D12069B0B14B
:102A6000206A411C2162216800784860E08C401E89
:102A70000004000CE084B7D12068C16821F0800117
:102A8000C1602068C16841F04001C160F8BD206AA2
:102A90000088C0F308004860206A801C2062E5E7D7
:102AA0004006F3D55006F1D5CA68204622F0400210
:102AB000CA6084F8413000F0D2F9F8BDA13E0008A8
:102AC00070B5040004D094F84100002510B106E070
:102AD000012070BD84F84050204600F023F82420E7
:102AE00084F841002068C16821F40051C16020468B
:102AF00001F0EAFA2068016921F49041016120683F
:102B0000416921F02A0141612068C16841F4005106
:102B1000C1606564202084F8410084F84200656348
:102B2000002070BD2DE9F04786B0044614216846A8
:102B3000FDF79EFB6648DFF894C123680226032157
:102B4000644A002507154FF0400A634563D1604B86
:102B50001033D3F800C04CF4802CC3F800C01B68BD
:102B600003F480230593036843F0040303600368C0
:102B700003F004030593036843F002030360006855
:102B8000884600F0020005902020CDE9000602AB47
:102B90004FF0070983E8200369461046FEF702FA62
:102BA00002AB694683E82003CDE900764A48FEF788
:102BB000F9F94B4E49484FF00068C6E90357756173
:102BC000B561F5613562756286E801053046FEF74C
:102BD00035F908B1FDF7F8FEA663B463404E3F48EF
:102BE000603630383060C6E90185C6E90357756143
:102BF000B561F561356230467562FEF71FF908B1BF
:102C0000FDF7E2FEE663002211462720B463FEF7DB
:102C10001DFB272054E0DFF8CCC0634552D12C4B7C
:102C20001433D3F800C04CF0200CC3F800C01B686C
:102C300003F020030593036843F004030360006876
:102C4000029500F004000590C020CDE900060820A0
:102C5000CDE9031069461046FEF7A4F9204E22483C
:102C6000C0364FF020683060C6E90185C6E90357D9
:102C700080157561C6E90650356230467562FEF70B
:102C8000DDF808B1FDF7A0FEE663B463174E164801
:102C9000C6E903577561B561F561356278307562D3
:102CA00086E801053046FEF7C9F808B1FDF78CFE4D
:102CB000A663002211464720B463FEF7C7FA4720F7
:102CC000FEF7B6FA06B0BDE8F08700000048004005
:102CD00030380240000802400004024058600240C0
:102CE000C40200200014014028640240E4030020D4
:102CF00090F84230202B01D00220704721B11AB148
:102D00000023036301F066BA0120704790F8423057
:102D1000202B01D00220704721B11AB10023036398
:102D200001F0AABA0120704710B50A4A01680446AA
:102D3000914209D10849887800F092F806490122A9
:102D4000891C0648FFF7E2FF2046BDE8104002F06C
:102D500087BD000000480040100000203402002021
:102D600000680649884208D105480078002804D048
:102D700080220449044800F059B87047001401400B
:102D8000130000208C040020340200202DE9F843B9
:102D9000044690F841001F4615460E46202802D0F2
:102DA0000220BDE8F8838EB185B100206064212047
:102DB00084F84100FEF7DCF9A5848146E584A0682B
:102DC0004FF02008B0F5805F02D003E00120E8E773
:102DD000206910B1354600260EE000250CE0802168
:102DE000204601F064FAA0B9BDB115F8010B2168C5
:102DF0004860E08C401EE084E08C4B464FF00002BF
:102E000000970028EBD14FF04001204601F04FFA27
:102E100040B184F841800320C3E736F8020BC0F3C9
:102E20000800E4E784F841800020BAE790F84130D8
:102E3000202B01D00220704779B172B101628284E7
:102E4000C28400214164212180F841100068C168DA
:102E500041F08001C1600020704701207047704739
:102E600010B56FF03B0446281ED00EDC342851D03C
:102E700006DC312842D0322844D0332812D145E034
:102E800035284BD042280DD116E033494D2854D077
:102E900004DC492846D04C2804D115E052281BD028
:102EA000532823D02DA052E03C2000F035FD2046D1
:102EB00000F050FD2EA04AE0204600F02DFD3C2001
:102EC00000F048FD2FA042E0372000F025FD37201C
:102ED00000F040FD30A03AE06FF03604204600F0EC
:102EE0001BFD204600F036FD2FA030E0002000F052
:102EF00013FD002000F02EFD2FA028E002F010FDB1
:102F000031A024E002F020FD36A020E002F0BEFC5B
:102F10003BA01CE002F0D0FC41A018E002F0ECFC69
:102F200045A014E0087820B10020087018B147A02F
:102F30000DE00120F9E74AA009E0487820B100201F
:102F4000487018B14BA002E00120F9E74DA0BDE8A0
:102F5000104002F07FBD000010000020554E4B4E87
:102F60004F574E20434F4D4D414E440D0A00000037
:102F70004D4F544F523A20464F52574152440D0A3A
:102F8000000000004D4F544F523A204241434B57EE
:102F90004152440D0A0000004D4F544F523A204C0C
:102FA0004546540D0A0000004D4F544F523A2052EE
:102FB000494748540D0A00004D4F544F523A205390
:102FC000544F500D0A0000004C494441523A2053DE
:102FD00043414E4E494E4720535441525445440DAF
:102FE0000A0000004C494441523A205343414E4E9E
:102FF000494E472053544F505045440D0A0000009D
:103000004C494441523A204845414C544820434899
:1030100045434B205245515545535445440D0A00F4
:103020004C494441523A20494E464F205245515551
:1030300045535445440D0A004C494441523A2052EC
:103040004553455454494E470D0A000053504545D9
:103050004420494E464F3A204F4E0D0A00000000D2
:10306000535045454420494E464F3A204F46460D61
:103070000A0000004D435520494E464F3A204F4E1E
:103080000D0A00004D435520494E464F3A204F4609
:10309000460D0A00FEE700002DE9F04F8BB0002539
:1030A0002E46804637462C460DF124090DF1140AB0
:1030B0000DF1100B17E0CDF800B0CDE901A903AB7D
:1030C00008AA07A906A800F09DF9BDF90C0005445F
:1030D000BDF910000644BDF9140007440A20FDF7AD
:1030E0004FFF641CA4B24445E5D395FBF8F10748B3
:1030F000018096FBF8F1418097FBF8F1818003494C
:1031000001200C3908700BB0BDE8F08F20000020C2
:103110002DE9F04304462DED068B8BB0FEF728F821
:10312000064609AA05A904A88DE8070003AB07AA6B
:1031300006A908A800F066F9BDF9240000EE100AFF
:10314000F8EEC00A9FED781A80EE810ADFED770A6B
:10315000774D30EE200A84ED030A287898B105F106
:103160000C00BDF80C200188511AADF80C104188F4
:10317000BDF81020511AADF810108088BDF8141059
:10318000081AADF81400BDF91C0000EE100ABDF9D4
:103190001800F8EEC00A00EE100AB8EEC00A01F0FE
:1031A0000BF99FED648ABDF8180020EE08AA10FB09
:1031B00000F1BDF81C0010FB001000EE100AB8EE84
:1031C000C00A01F081FDBDF92000F0EE400A00EEDA
:1031D000100AB8EEC00AB1EE400A01F0EDF8BDF9F0
:1031E0000C0060EE089A00EE100AF8EEC00A9FED9F
:1031F000520ABDF91000514F80EE809A00EE900AFD
:10320000BDF91400F8EEE00AC0EE808A00EE900AE4
:10321000F8EEE00A80EE808AB0EEC90A10EE100ADD
:10322000DFED47AAB84201DAB0EE6A9AB0EEE80ADA
:1032300010EE100AB84201DAF0EE6A8AB0EEC80A5F
:1032400010EE100ADFF8FC904FF00008B84223DAC5
:10325000B0EE6A8A02F0E2F9F0B1E878401CC0B240
:10326000E8700A281AD3686842F21071301A88424E
:1032700003D93220FFF710FF6E6099ED020AF0EEDD
:10328000C00A10EE900AB84208DDDFED2F0A20EEEA
:10329000200A85ED020A01E085F8038099ED000A15
:1032A0004846B5EEC00AF1EE10FA0DD1D0ED010A94
:1032B000F5EEC00AF1EE10FA06D184ED00AAC4EDD5
:1032C000019AC4ED02AA25E0DFED200A9FED201A45
:1032D00009EE200A60EE011A9FED1E0A4AEE001A5E
:1032E000C4ED001AD0ED011A48EEA01A21EE811AA1
:1032F00009EE801A84ED011AE97890ED020A052999
:1033000002D208EE200A03E0D5ED020A30EE600A90
:1033100084ED020A1ECC80E80E00C9F80C400BB008
:10332000BDEC068BBDE8F0830000AA43B81E124234
:1033300014000020E12E654233338341CDCCCC3DD7
:10334000000000008C0500200AD7233C6F12833A4E
:1033500048E17A3F00D7A33C10B56420FDF710FE8A
:1033600080216B2000F0A4F86420FDF709FE002105
:103370006B2000F09DF8752000F01AF801216B20F9
:1033800000F096F80021192000F092F803211A208D
:1033900000F08EF818211B2000F08AF810211C2064
:1033A00000F086F8BDE810403220FDF7E9BD0000CE
:1033B0007CB540F080008DF8040000200F4D8DF8A2
:1033C000000002464FF4805421462846FDF7CAFE0D
:1033D0004FF0FF363346012201A90948FEF74DFCA4
:1033E0003346012269460648FEF79CFB012221462E
:1033F0002846FDF7B7FE9DF800007CBD00040240A2
:10340000740000202DE9F04F89B0804600201C4652
:1034100091460D46DDF848B0DDF850A0034605AAF8
:1034200001AEFF2111543354401C0F28FADBBB209E
:103430001D4F8DF814004FF4805600223146384657
:10344000FDF790FE4FF0FF3000900F2301AA05A971
:103450001648FEF7C5FC012231463846FDF782FECC
:10346000BDF8050040BAA8F80000BDF8070040BA52
:103470002880BDF8090040BAA9F80000BDF80B008B
:1034800040BAAAF80000BDF80D0040BA2080BDF88F
:103490000F0040BAABF80000BDF81100139940BA14
:1034A000088009B0BDE8F08F0004024074000020DD
:1034B00038B500F07F008DF800000D4D8DF801103B
:1034C0004FF48054002221462846FDF74BFE4FF072
:1034D000FF33022269460748FEF7CFFB012221464F
:1034E0002846FDF73FFE0120FDF74AFD38BD0000EC
:1034F00000040240740000207FB5002415480094A9
:10350000019402941249039401604FF48031C0E9A0
:1035100001140461047680F820400F49C0E90A14C0
:103520000125C561C46080F830404561FDF700FBAE
:1035300008B1FDF749FA0220CDE900056946029479
:103540000448FDF743FA002801D0FDF73DFA7FBD9E
:10355000002001402C0000200100000F194808B590
:10356000016841F400110160016801F4001100914B
:10357000016841F4800101600068002200F48000CD
:10358000009011460C20FDF761FE0C20FDF750FE67
:10359000002211460E20FDF759FE0E20FDF748FED1
:1035A000002211463920FDF751FE3920FDF740FE7B
:1035B000002211464520FDF749FEBDE808404520A0
:1035C000FDF736BE303802402DE9F04186B01421B7
:1035D0006846FCF74DFE1E480024016841F00401D6
:1035E0000160016801F004010591016841F00101E9
:1035F0000160016801F001010591016841F00201DB
:1036000001600068134F00F00200059000222021A5
:103610003846FDF7A7FDDFF84080BE140022314692
:103620004046FDF79FFD202000900125CDE9015483
:10363000694638460394FDF7B5FC0096CDE9015480
:10364000694640460394FDF7ADFC06B0BDE8F08145
:10365000303802400000024000040240104810B51B
:103660000E4901604FF482714160002102228160A5
:10367000C0E9031201224261520282612822C0E99C
:103680000721416281620A21C162FEF795F9002893
:1036900003D0BDE81040FDF797B910BD00380040D9
:1036A0007400002010B58CB024216846FCF7E0FDC2
:1036B0000024154809944FF080410A9401601121BB
:1036C000C0E90114611EC0E9031484610120CDE941
:1036D0000004CDE902040494CDE90540079469464D
:1036E00009480894FEF76EFD08B1FDF76DF90994DD
:1036F00009A905480A94FEF77DFC002801D0FDF7D2
:1037000063F90CB010BD0000CC00002010B58AB0E9
:10371000002407941C2168460894FCF7A9FD224860
:10372000204901601121C0E9011440F2E731C0E9EC
:1037300003148461FEF725FF08B1FDF745F90794EE
:1037400007A919480894FEF755FC08B1FDF73CF9A4
:103750006020CDE9000402940022694612480494D6
:10376000FEF7A9FE08B1FDF72FF9042269460E48BD
:10377000FEF7A1FE08B1FDF727F9082269460A48BD
:10378000FEF799FE08B1FDF71FF90C2269460648BD
:10379000FEF791FE08B1FDF717F90348FEF74EFE5C
:1037A0000AB010BD000400401401002010B58CB018
:1037B00024216846FCF75CFD00241648099414494E
:1037C0000A9401601121C0E901144FF6FF71C0E9AC
:1037D000031484610120CDE90004CDE902040494BE
:1037E000CDE90540079469460A480894FEF7EAFCCB
:1037F00008B1FDF7E9F8099409A906480A94FEF70B
:10380000F9FB002801D0FDF7DFF80CB010BD000077
:10381000000800405C0100201CB500240E48009404
:103820000C490194016042F2CF01C0E90114632107
:103830008461C160FEF726FC08B1FDF7C5F800946D
:10384000694605480194FEF7D5FB002801D0FDF735
:10385000BBF81CBD00100040A40100201CB50024D2
:103860000F4800940D490194016042F22731C0E9EC
:10387000011442F20F718461C160FEF703FC08B1CC
:10388000FDF7A2F80094694605480194FEF7B2FBE3
:10389000002801D0FDF798F81CBD0000001400407E
:1038A000EC0100200C4810B50A4901604FF4165194
:1038B0004160002181600C22C160C0E90412816175
:1038C000C161FFF7FDF8002803D0BDE81040FDF707
:1038D0007BB810BD00480040340200200C4810B5F1
:1038E0000A4901604FF4E1214160002181600C220E
:1038F000C160C0E904128161C161FFF7E1F80028ED
:1039000003D0BDE81040FDF75FB810BD00140140C2
:103910007C020020FEE700000D4A10B5002311686C
:10392000002801DAC0F10000D46804F1010400FBB2
:1039300004F04FF06404B0FBF4F003DD486310685A
:10394000836310BD4B63FADA1168886310BD000011
:10395000140100200D4A10B500231168002801DA77
:10396000C0F10000D46804F1010400FB04F04FF042
:103970006404B0FBF4F003DDC8631068036410BD99
:10398000CB63FADA1168086410BD0000140100204E
:10399000FEE7000080EC030A9FED070A80ED030AB2
:1039A00080ED040A80ED050A80ED060A80ED070A25
:1039B00080ED080A7047000000000000704700001A
:1039C0000148FDF77BBF00007400002010B5806B3C
:1039D0000021C187C186FDF76FFF10BDF8B5044611
:1039E00040684FF48273984221D1A0684FF48065FB
:1039F000B0F5004F01D0A8420AD12068066826F031
:103A0000400606606068984211D1A068A8420ED0B6
:103A100000920B4600228021204600F043F8002847
:103A200004D0606D40F0200060650320F8BD009276
:103A30000B4600220121EFE7F8B515460E460B466E
:103A4000009204460122022100F02CF8A0B913488C
:103A500013490068B0FBF1F04FF47A7148430090CD
:103A60006068B0F5827F0DD1334600228021204668
:103A7000009500F017F870B1606D40F020006065AF
:103A80000320F8BD009830B1401E00902068806887
:103A9000C0430006F6D50020F8BD00000C00002051
:103AA00000366E012DE9F8431E46914688460446CD
:103AB000089DFDF75DFB401B351AFDF759FB0746D6
:103AC00026480068C0F3CB3068430AE0701C09D078
:103AD000FDF74EFBC01BA8420FD275B10098B8B3DA
:103AE000401E00902068816838EA010033D0002031
:103AF0004845EBD10020BDE8F8832068416821F0FB
:103B0000E00141606068B0F5827F0BD1A068B0F53C
:103B1000004F02D0B0F5806F04D12068016821F019
:103B200040010160A06AB0F5005F09D1206801681A
:103B300021F4005101602068016841F400510160E6
:103B4000012084F85100002084F850000320D2E7BF
:103B5000FFE70025C6E70120CAE700000C000020AF
:103B60007047FDF70BBB000030B593B034216846B9
:103B7000FCF77EFB14210DA8FCF77AFB20480025FA
:103B8000016841F080510160006800F0805012909F
:103B90001C48016841F4404101600068022400F4BF
:103BA000404012900120039010200490009406944D
:103BB0000820CDE90750B420CDE909040B946846EC
:103BC0000C94FDF7B3FC08B172B6FEE7FDF770FB8D
:103BD00008B172B6FEE70DA90F2081E831004FF45D
:103BE000A05010904FF48050119005210DA8FDF7C2
:103BF00097FB002801D072B6FEE713B030BD00007D
:103C000040380240007000400248016841F47001F1
:103C10000160704788ED00E00148FEF776BB0000C8
:103C2000A40100200148FEF770BB0000EC01002059
:103C3000F0B50268274D284E284FDFF8A4C0294B65
:103C40004FF0804EA84209D0704507D0B04205D051
:103C5000B84203D0604501D0984203D122F07004ED
:103C60004A682243A8421BD0704519D0B04217D0F1
:103C7000B84215D0604513D0984211D01A4CA042DA
:103C80000ED01A4CA0420BD0194CA04208D0194CAF
:103C9000A04205D0184CA04202D0184CA04203D13B
:103CA00022F44074CA6822434C6922F08002224305
:103CB0008C68C4620C688462A84201D0984201D129
:103CC00009690163016841F004010160012141615A
:103CD0000260F0BD00000140000400400008004008
:103CE000000C00400004014000400140004401403D
:103CF0000048014000180040001C00400020004027
:103D000010B501F01F010123046A8B409C4304623B
:103D1000036A8A401343036210BD0000F0B5026AD3
:103D2000036A23F00103036243688469114E24F09F
:103D300073050C68104F2C4322F002058A682A4351
:103D4000B04201D0B84205D122F00805CA682A4322
:103D500022F00402B04201D0B84205D14D6923F4EB
:103D600040731D438B692B43436084614968416301
:103D70000262F0BD0000014000040140F0B5026A9B
:103D8000036A23F010030362436884690D6824F416
:103D9000E64444EA05248D6822F0200242EA051236
:103DA0000F4D104EA84201D0B04206D1CF6822F08C
:103DB000800242EA071222F04002A84201D0B0423B
:103DC00007D14D6923F4406343EA85038D6943EAD3
:103DD000850343608461496881630262F0BD00002D
:103DE0000000014000040140F0B5026A036A23F4B8
:103DF000807303624368C46922F4007224F073057F
:103E00000C68124E2C438D6842EA05220E4DA842E2
:103E100001D0B04206D1CF6822F4006242EA072204
:103E200022F48062A84201D0B04207D14D6923F448
:103E3000405343EA05138D6943EA05134360C461A7
:103E40004968C1630262F0BD000001400004014006
:103E500030B5036A026A22F4805202624268C46981
:103E60000D6824F4E64444EA05248D6823F40053E5
:103E700043EA0533084DA84202D0084DA84204D1B8
:103E80004D6922F4804242EA85124260C461496869
:103E90000164036230BD00000000014000040140E5
:103EA00010B5806B0021C185FEF7C8FC10BD70B550
:103EB000846B2068406994F84110C0F3C01000255D
:103EC000212904D118B1E584204600F08EF820683D
:103ED000406994F84210C0F38010222904D118B12F
:103EE000E585204600F05AF8606C40F010006064F0
:103EF0002046FEF7A3FC70BD10B50146806B096833
:103F000009684FF00003C9052ED4C38501680C3140
:103F100051E8002F22F4807241E80024002CF5D1F2
:103F20000168143151E8002F22F0010241E8002419
:103F3000002CF5D10168143151E8002F22F0400225
:103F400041E80024002CF5D1202180F84210016BBB
:103F5000012909D101680C3151E8002F22F010022B
:103F600041E80024002CF5D14363016B012902D004
:103F7000FEF7DAFE10BD818DFEF727FC10BD10B5EF
:103F8000806B01214163016B012902D0FEF7E8FE3D
:103F900010BD818D4908FEF718FC10BD01680C3179
:103FA00051E8002F22F4907241E80023002BF5D154
:103FB0000168143151E8002F22F0010241E800238A
:103FC000002BF5D1016B012909D101680C3151E8B1
:103FD000002F22F0100241E80023002BF5D1202110
:103FE00080F8421000210163704701680C3151E8EC
:103FF000002F22F0C00241E80023002BF5D1202140
:1040000080F84110704708B590F84210222901D07D
:10401000022008BD81684FF48053994201D10269A2
:1040200022B1826A99421BD049B10AE00268816AD2
:104030005268C2F308020A80816A891C08E001699B
:1040400071B10168496801F07F011170816A491CF2
:104050008162C18D491E0904090CC18503D01BE092
:1040600001684968F1E70168CA6822F02002CA6065
:104070000168CA6822F48072CA6001684A6922F045
:1040800001024A61202180F8421000214163026B45
:10409000012A03D0FEF748FE002008BD0163016835
:1040A0000C3151E8002F22F0100241E80023002BD0
:1040B000F5D101680A68D20602D50A6849680091FC
:1040C000818DFEF782FBE7E770B504460068016961
:1040D000E26821F4405111430161A1682069E2695D
:1040E00001436069104301432068C26849F20C63D0
:1040F0009A430A43C26020684169A26921F4407171
:104100001143416131492068884202D030498842D8
:1041100002D1FDF7AFF901E0FDF79CF9E269002358
:10412000192164253226B2F5004F626828D0A0FB21
:104130000101930F9200FCF763F80146B0FBF5F024
:104140006FF01802504301EB800006EB0010B0FB4B
:10415000F5F000F0F002B1FBF5F002EB0012B1FB5C
:10416000F5F06FF01803584301EB800006EB0010E8
:10417000B0FBF5F000F00F0021681044886070BDBE
:10418000A0FB010192185B41FCF73AF80146B0FB35
:10419000F5F00201B1FBF5F06FF01803584301EBA5
:1041A000800006EBC000B0FBF5F000F0F80002EB79
:1041B0004002B1FBF5F0584301EB800006EBC00074
:1041C000B0FBF5F000F00700D6E70000001001405A
:1041D0000014014037B582B01346039A8262044648
:1041E000838500206064222184F84210E56B1F491A
:1041F000E963E56B1E492964E56B1E49E964E16BDF
:1042000008652168E06B091DFCF782FE38B11020BB
:104210006064202084F84200012005B030BD206891
:10422000016840680090206948B120680C3050E86F
:10423000001F41F4807140E80012002AF5D1206887
:10424000143050E8001F41F0010140E80012002A3C
:10425000F5D12068143050E8001F41F0400140E8DB
:104260000012002AF5D10020D7E70000F93E00082F
:104270007F3F0008AF3E000881628285C285002131
:104280004164222180F84210016921B10168CA68A5
:1042900042F48072CA6001684A6942F001024A61D0
:1042A0000068C16841F02001C160002070472DE91D
:1042B000F8431F4690460D460446089E23E0701CB6
:1042C00021D0FCF755FFC01BB0421AD8CEB12068F0
:1042D000C168490717D5802D15D0402D13D001682E
:1042E000C94309070FD401680025406800902046A3
:1042F000FFF754FE0820606484F840500120BDE8B8
:10430000F8830320FBE72068006835EA000004D04A
:1043100000204045D3D00020F1E70120F9E700005C
:104320000148FEF78DBA0000340200200148FEF774
:1043300087BA00007C020020FEE700000FB47CB5C5
:104340000C0009AD01D0611E00E00021CDE90001A3
:10435000064B6A462946089800F0D2FD002C02D090
:10436000009A002111707CBC5DF814FB0756000810
:104370004100080218BF04200A0E18BF40F00100D7
:104380004FF07F4232EA010108BF40F002000128ED
:1043900008BF052070470907090E002804DB00F15B
:1043A000E02080F80014704700F00F0000F1E020DA
:1043B00080F8141D7047000070B54FF068422DED75
:1043C000048BF0EE408A18EE900AB0EE608A18EE88
:1043D000101A02EB4003B3F1654F3CBF02EB410200
:1043E000B2F1654F7DD200BFC0F3C753C1F3C752CE
:1043F0009A1A1B2A09DD10F0004F14BF9FED830AA3
:104400009FED830ABDEC048B70BD12F11A0F36DAF2
:1044100011F0004F09D010F0004F0CBF9FED7D0A46
:104420009FED7D0ABDEC048B70BD88EE889A19EE75
:10443000100AFFF79DFF042808BF00F081FC18EE6A
:10444000900AFFF795FF054618EE100AFFF790FF58
:10445000044619EE100AFFF78BFF042D18BF052D37
:1044600008D1042C18BF052C04D1002804BF022059
:1044700000F07EFCB0EE490ABDEC048B70BD42003A
:10448000B2EB410F3AD910F0004F19BFDFED630ACC
:104490009FED630ADFED630A9FED630AB0EE481AF1
:1044A0000A46B1EE688A80F00041F0EE418A10467B
:1044B0000A1A5200B2F1807F34D2484010F0004F07
:1044C000DFED5A1A9FED5A2A1DBFBEEE001A70EE9C
:1044D000E10A30EE420AB6EE001A08BF70EEA10AF9
:1044E00000E040E008BF30EE020AB0EE682A01EEBC
:1044F000482A08EE818AC2EE081A15E011F0004F32
:1045000004BF9FED4C0AF0EE400AD1D010F0004FEE
:1045100019BFDFED490A9FED490ADFED490A9FED1A
:10452000490AC5E7C8EE881A21EEA11A9FED462A6E
:10453000DFED462A41EE022A9FED452A01EE222AAE
:10454000DFED442A41EE022A9FED432ABDEC048BA5
:1045500001EE222A21EE811A01EE020A30EE210A32
:1045600030EE200A70BD4FF07F42B2EB400F28BF03
:10457000B2EB410F09D2F0EE480AB0EE680ABDEC8A
:10458000048BBDE8704000F0C7BB40EA01035B004C
:1045900008BF41F0FF410BD0B2EB400F08BFB2EBB8
:1045A000410F08D120F0804008EE900A21F08041B0
:1045B00008EE101A18E7B2EB400F12BF5FEA410392
:1045C00040F0FF4001F000413FF40EAFB2EB410F6D
:1045D00012BF5FEA400200F0004041F0FF413FF4AB
:1045E00003AF4A0092EA40033FF5FEAE002AACBF9B
:1045F0009FED1A0A9FED1A0A68EE808A28EE008A5B
:1046000018EE900A18EE101AEEE60000DB0FC9BF94
:10461000DB0FC93FDB0F4940DB0F49C00000C9BFBA
:1046200022AAFDB90000C93F22AAFD390060ED3E73
:10463000C30ACE3700000000000049C022AA7DBA9C
:104640000000494022AA7D3A2DAD65BD8FB8D53D09
:104650000FB511BE61C84C3EA8AAAABE0000804F8B
:104660000000802F10B510EE100A2DED068BB7EE6E
:10467000001A10EE901AB0EE418A0022A0F5000C4C
:10468000DFEDFE9A4FF00073BCF1FE4F4FF07F4418
:1046900003EB410C80F0B481BCF1804FC0F020826C
:1046A000F74901449FEDF73AB1F5005F40F2D4823B
:1046B00000F58021CB0C03F00F0101EE901AC3F33B
:1046C00007137F3BA0EBC350B8EEE12A00EE100ABF
:1046D0001A44DFEDED2AF0EE411A42EE221AF0EE16
:1046E000613A70EE232A30EE632A12EE900A00F54A
:1046F00000606FF30B0001EE900A73EEE13A33EEC7
:10470000804AC1EE223A22EE230A10EE100A00F58A
:1047100000606FF30B0000EE100A00EE612A00EE5D
:10472000442A62EE232A70EE221A21EEA12ADFED3E
:10473000D73A02EE233A23EE023A20EE012A22EE85
:10474000811A03EE211A32EE010A10EE100A00F56A
:1047500000606FF30B0000EE100A72EE401A31EEAB
:10476000812A9FEDCB1A60EE011A9FEDCA1A20EE46
:10477000011A9FEDC90A02EE001A31EE810A10EE0D
:10478000100A00F500606FF30B0000EE100AC3483A
:1047900071EEC01A31EE812A784400EBC10090ED31
:1047A000003AD0ED011A100101EE100AF8EEC12A0C
:1047B00032EE211A31EE001A31EE031A31EE221ACE
:1047C00011EE100A00F500606FF30B0009EE100AFD
:1047D00039EE621A31EE431A31EE400A30EE610AC8
:1047E00032EE40AA10EE900A002100F500606FF34F
:1047F0000B0008EE900A084670EEE8AAFBF74AFFA5
:1048000029EE280A00F00C01F0EEC00A10EE900A22
:10481000B0F18B4F0DDD10EE900AB4EB400F08D3D2
:1048200010EE100A4FF08B4262F31E0008EE900A61
:1048300013E069EE2A0A38EEAA1A4AEE010A30EEAF
:10484000201A11EE100A00F500606FF30B0008EE5D
:10485000900A30EE680A70EE209A0C20FBF71AFFDF
:1048600038EEA90AB5EEC00AF1EE10FA34BFFEEE3A
:10487000000AF6EE000A30EE800ABDEEC00A10EE25
:10488000100A011100EE101AF8EEC00A00EE100A2C
:10489000B8EEC00A38EEC00A30EE290ADFED801A01
:1048A0009FED801A00EE211ADFED7F1A7F4900F09C
:1048B0000F0040EE011A21EE800A794401EB8001DD
:1048C00091ED001A7A49794401EB8001D1ED001A8B
:1048D000784901EE801A794401EB8000764990ED29
:1048E000000A31EE001AB0EEE00A10EE100A88421B
:1048F00015DA10EE100AB4EB400F10D39FED6F0ADB
:1049000030EE800ADFED6E0A20EE200A68EE010A22
:10491000BDEC068BBCEEC00A20EE200A10BD10EEE6
:10492000100A6849884243DA10EE100AB4EB400FCF
:104930003ED3BDEEE00A68EE010A10EE100A00EB6D
:10494000D0725110C90501F17E5100EE101AA0EB92
:104950006200C00560EE200A00F17E5000EE100AF1
:1049600060EE808A18EE900AB4EB400F0FD102205F
:1049700000F0FEF900F0DCF910EE101A18EE100A43
:10498000BDEC068B61F31E0000EE100A10BD18EEA0
:10499000900A400011D018EE900AFFF7E9FC0428B5
:1049A00008BF00F0CDF9B0EE680ABDEC068B10BD73
:1049B000F5EEC00AF1EE10FA0FD2022000F0D8F99D
:1049C00000F0BEF910EE101A18EE100ABDEC068BBE
:1049D00061F31E0000EE100A10BD022000F0C8F9BD
:1049E00000F0A6F910EE101AB0EE480A10EE100A08
:1049F000BDEC068B61F31E0000EE100A10BD00BF77
:104A0000BCF1804F6CD300BF00F1FF43B3F1FE4F08
:104A100024D200BFB0EEC00A10EE100AC1F3C75393
:104A20007F2B0DDB972BBFF63BAEC3F196034FF008
:104A3000010C0CFA03F3A3F1010C1CEA010F08D0DE
:104A4000012000F095F9BDEC068BBDE8104000F0A8
:104A500067B90B4218BFBFEE008A21E643001CBFB6
:104A60004FF08073B3EB400F34D96FF01A02DFEDD3
:104A7000161A20EE210A10EE100A27E000000000AE
:104A8000001080C0ABAAAA3E0000803D7EE24C3EF2
:104A900000B03842D49AB8BB3BAA38420813000091
:104AA000FC596337C9FF753A1872313DA6120000F0
:104AB000DA1200004A1200000000FC420000FE4230
:104AC0000000004B000040430000004D10F0004F7C
:104AD000A0D1E5E5A0F50003B3F1FE4F21D2DFE55B
:104AE00003EB4103B3F1007F11D3F5EEC00AF1EE01
:104AF00010FA05D1430018BFB4EB400F76D883E716
:104B000001F0004141F0FC5100EE901A7CE7B3F156
:104B1000807F06D210EE903AA3F5000300EE903AA3
:104B200072E720F000426FF0FF4C604C02EB0C0388
:104B3000A34210D321F000439C44A4450BD3B0F111
:104B40007E5F18BF5FEA410C50D0B2F1FF4F98BFB3
:104B5000B3F1FF4F05D9BDEC068BBDE8104000F066
:104B6000DBB8B0F1FF4F0FD0C1F3C7527F2A09DB8A
:104B7000972A11DAC2F19602012303FA02F2531EB8
:104B80000B4205D0002208E011F0004F55D128E07B
:104B90000A4218BF012200D1022210F5000F13D0E3
:104BA00028B3B0F1004F26D010F1814F4FD04FF015
:104BB000FE42B2EB400F94BF01200020012202EB25
:104BC000E171884239D10CE011F0004F02D0012A86
:104BD00038D032E0012A02BF9FED350ABDEC068BCA
:104BE00010BD9FED340ABDEC068B10BD2FE011F017
:104BF000004F0CD121E0B1F1FF4F1ED011F5000F95
:104C000005D011F0004F15D00AB1012A08D00220BA
:104C100000F0AEF8BDEC068BBDE8104000F072B8B5
:104C2000022000F0A5F800F06DF8BDEC068BB1EEA7
:104C3000400A10BD0AB1012A04D0B0EE690ABDECE9
:104C4000068B10BDBDEC068B9FED1B0A10BDBDECA5
:104C5000068BB7EE000A10BD30EE410AB5EE001A21
:104C60009FED172A00EE413AB6EE001A60EE001AE8
:104C700000EE431A61EEC11A9FED101A20EE011AE0
:104C800020EE020A9FED0F2A01EE820A71EE001A51
:104C900011EE900A00F500606FF30B0009EE100AA8
:104CA00031EE491A31EE00AA9CE50000FFFF3F00FB
:104CB000000080FF0000807F0000008000B0B8414D
:104CC000D49A38BB3BAAB84110B52DED028BB1EE9A
:104CD000C08A18EE100A20F00040C0F1FF40C00F5B
:104CE0000AD010EE100A20F00040C0F1FF40C00FC3
:104CF00004BF012000F03CF8B0EE480ABDEC028B86
:104D000010BD0000DFED030AB7EE001A81EE200AA5
:104D1000704700000000000030EE200A70470000DD
:104D2000DFED020A80EEA00A7047000000000000DC
:104D30009FED020A20EE000A70470000000000709C
:104D40009FED020A20EE000A7047000000000010EC
:104D500002E008C8121F08C1002AFAD17047704744
:104D6000002001E001C1121F002AFBD170470000A2
:104D70000149086070470000280000202DE9FF5F0E
:104D800082B00021DDE90430020DDDF840B00343BC
:104D900018D044F61050A2F2FF3242431514119875
:104DA00001281FD0A5EB0B00401C5FEA000A4FF062
:104DB00000064E4FDFF83891B046504615D5CAF17F
:104DC000000413E0119801244AA3012801D16FEADD
:104DD0000B010298119AC0E90031C0E9024206B005
:104DE000BDE8F09FCBF10000DFE704460021404A18
:104DF000491842EB0450CDE9001012E0E00707D05B
:104E000032463B4640464946FBF733FB80468946DF
:104E100032463B4610461946FBF72BFB06460F462B
:104E20006410002CEAD1DDE90401DDE90023BAF1C8
:104E3000000F06DAFBF71DFB42464B46FBF719FB5A
:104E400005E0FBF788FB42464B46FBF784FB044634
:104E50000E460022284BFBF705FC03D84FF0FF302D
:104E6000014607E00022254B20463146FBF75AFA5F
:104E7000FBF7E0FB102409E0002C0ADB0A220023E8
:104E8000FBF7BEF9039B30321A55641E50EA01024B
:104E9000F2D1641C039AC4F111031444119A012A3B
:104EA00003D0012208430DD10AE0084304D00020BA
:104EB0004FF0110B119072E7A3EB0B056D1E0DE087
:104EC0005B4504DD4FF0000205F1010504E003DA63
:104ED0004FF00002A5F10105002AECD002981199CB
:104EE000C0E90231C0E9004579E700000000144044
:104EF0000000F03F300000000000F0430000E03F01
:104F00002DE9FF4F95B09A46884606460025EEE10A
:104F1000252877D100242746F94A0121039400E08F
:104F2000044316F8013F203B01FA03F01042F7D189
:104F300030782A2811D06FF02F033078A0F130029A
:104F4000092A16D8039A44F0020402EB820203EB0A
:104F500042021044761C0390EFE758F8042B0392AA
:104F6000002A03DA504244F40054039044F002044F
:104F7000761C30782E2816D116F8010F44F0040460
:104F80002A280DD06FF02F023078A0F13003092BC2
:104F900009D807EB870302EB4303C718761CF3E736
:104FA00058F8047B761C30786C280FD006DC4C282F
:104FB00017D068280DD06A2814D104E0742810D0C6
:104FC0007A280FD10DE044F400140AE044F4801470
:104FD00001E044F440147278824202D104F5801456
:104FE000761C761C307866280BD013DC582877D0D6
:104FF00009DC002875D04528F6D04628F4D047288B
:105000001AD193E118E0632835D0642879D0652857
:1050100012D18BE1702873D008DC6728F1D06928A1
:105020006FD06E280DD06F2806D1ACE073282CD03D
:10503000752874D0782853D05246179990476D1C24
:1050400054E1C4F30250022809D003280DD0D8F847
:10505000001004280DD00D6008F1040846E1D8F8CE
:105060000010EA17C1E90052F6E7D8F800100D80E9
:10507000F2E70D70F0E718F8041B8DF8001000201F
:105080008DF80100EB46012003E058F804BB4FF017
:10509000FF3061074FF0000102D40DE009F101017A
:1050A0008946B9420FDA8145F8DB1BF8091000295F
:1050B000F4D108E009F1010189468142FADB1BF8CD
:1050C00009100029F6D103985346A0EB09072146A1
:1050D0003846179A00F080FA284400EB090507E0EB
:1050E00044E008E10DE01BF8010B52461799904788
:1050F000B9F10109F7D2534621463846179AF2E032
:1051000039E00A21C4F302524FF0000B0091022A49
:1051100006D058F8040BC117032A09D00AE023E08F
:1051200008F1070020F00702F2E80201904605E0CE
:1051300000B2C117042A01D140B2C117002906DA12
:105140000A460021404261EB02012D2202E02205C5
:1051500004D52B228DF80420012203E0E20701D0C0
:105160002022F7E7914657E00A2100E010214FF096
:10517000000B00910BE010214FF0000B44F00404F1
:105180000827009103E008204FF0000B0090C4F3C3
:105190000252022A05D058F8040B0021032A08D035
:1051A00008E008F1070020F00702F2E8020190464B
:1051B00003E080B2042A00D1C0B24FF000092207F8
:1051C0002AD53278702A07D0DDF800C08CF0100C98
:1051D0005CEA0B0C05D00EE040228DF80420012281
:1051E00008E050EA010306D030238DF804308DF832
:1051F000052002229146009B83F0080353EA0B032B
:105200000AD150EA010201D1620705D530228DF89A
:1052100004204FF001097F1E3278582A04D039A2A9
:105220000C920CAA02920BE03BA2F9E75B46009AB3
:10523000FAF7E6FF0C9B9B5C029A521E02921370D7
:1052400050EA0102F2D1029804A9081A00F1200BD9
:10525000600702D524F4803400E001275F4502DDB9
:10526000A7EB0B0000E0002000EB0B01009003987F
:105270004944401A0390E00306D453462146179A46
:10528000039800F0A9F90544002706E001A852465A
:10529000C05D179990476D1C7F1C4F45F6DBE003FE
:1052A0000CD553462146179A039800F095F905440A
:1052B00004E030205246179990476D1C0099481E13
:1052C00000900029F5DC08E0029802995246007827
:1052D000491C0291179990476D1CBBF10001ABF17D
:1052E000010BF1DC5BE100F065F90544761C3078D8
:1052F00000287FF40DAE19B02846BDE8F08F0000FD
:10530000092801003031323334353637383961629B
:10531000636465660000000030313233343536375F
:10532000383941424344454600000000600700D43C
:10533000062708F1070020F00700F0E80223804666
:1053400003F0004C5FEA0C0001D097A009E02005B3
:1053500001D596A005E0E00701D095A001E0AFF2ED
:105360004C001390307823F0004365280CD006DC05
:10537000452809D046281DD047287FD13BE0662824
:1053800018D067287AD136E00021112F01DB1120D7
:1053900000E0781CCDE9000104A90CA8FFF7EEFCA1
:1053A000DDE90D010C9A4FF0000B07F10109109295
:1053B00000914EE04FF000400097CDE9011004A9A4
:1053C0000CA8FFF7DBFCDDE90D020C9B0F994FF0F9
:1053D000000B91461093009211B9791C00EB010962
:1053E000B7EB090003D4C0F1FF3B07F10109A9EBBA
:1053F0000700019042E0012F00DA01270021112F60
:1054000001DD112000E03846CDE9000104A90CA817
:10541000FFF7B4FCDDE90D010C9A00914FF0000B91
:10542000B946109221070FD4009A4A4503DA9146F3
:1054300001E0A9F10109B9F1010F05DD109AA9F107
:105440000101515C3029F4D0B84202DA10F1040FA6
:1054500003DA0121CDE9011010E0002803DC8344C8
:10546000A9EB000102E0411C494500DD8946A0EBA3
:105470000B00401C01904FF000400290200705D423
:105480000198484502DB4FF0FF30019000208DF875
:105490004B0002980DF14B07B0F1004F25D00220D0
:1054A0000C902B200D90029800280CDA40420290BC
:1054B0002D200D9007E00A210298FAF7FEFE303108
:1054C000029007F8011D0C99481E0C900029F2DC8F
:1054D00002980028EFD1791E0D980870307800F0FE
:1054E000200040F0450007F8020D11A8C01BC01DA8
:1054F00002901398007800B1012000EB0901019897
:1055000001EBE071029801440398401A401E039099
:10551000E00306D453462146179A039800F05CF83E
:1055200005441398007818B15246179990476D1C9E
:10553000E00323D553462146179A039800F04CF810
:1055400005441BE0BBF1000F07DB0098584504DD64
:105550001098179910F80B0001E017993020524667
:10556000904701980BF1010B401E05F101050190D8
:1055700004D12E205246179990476D1CB9F10001B5
:10558000A9F10109DEDC05E017F8010B5246179975
:1055900090476D1C0299481E02900029F4DC534686
:1055A0002146179A03989EE62D0000002B0000006C
:1055B000200000002DE9F041044600251E46174654
:1055C000880404D405E039462020B0476D1C641ED1
:1055D000F9D52846BDE8F0812DE9F04104460025C3
:1055E0001E469046C80301D5302700E020278804D6
:1055F00004D505E041463846B0476D1C641EF9D518
:105600002846BDE8F0814A68002A06D00A68531C83
:105610000B6010704868401E486070472DE9F041EB
:105620002DED0A8B8AB09FED888A09AA08A907A8E0
:105630008DE80700F0EE488AB0EE489AF0EE489AFE
:10564000B0EE48AAF0EE48AAB0EE48BAF0EE48BA7A
:1056500006AB05AA04A903A8FDF7D4FE7B4C7C4B3E
:10566000BDF81820617803F1780601EB4100491C70
:1056700023F8102003EB4002BDF81C505580BDF804
:1056800020509580BDF80C2026F8102006EB400035
:10569000BDF810204280BDF8142082801420B1FB98
:1056A000F0F200FB12116170A07801437DD0002858
:1056B0007CD0002000EB4001401C36F9112014285A
:1056C00000EE102A06EB4102B8EEC00AB2F9024021
:1056D000B2F9042030EE088A00EE104AB8EEC00A93
:1056E00070EE288A00EE102A33F9112003EB4101F5
:1056F000B8EEC00A30EE099A00EE102AB1F9022085
:10570000B1F90410B8EEC00A70EE299A00EE102A22
:10571000B8EEC00A30EE0AAA00EE101AB8EEC00ABF
:1057200070EE2AAAC6DBB3EE040A0024C8EE80CAD3
:105730009846C9EE008A89EE809ACAEE009A88EEF1
:1057400000CA8AEE80AA04EB4405F0EE000A36F99E
:10575000150000EE100AB8EEC00A30EE4C0AFEF753
:1057600081FF06EB4507B0EE408AB7F90200F0EE84
:10577000000A00EE100AB8EEC00A30EE6C0AFEF71E
:1057800071FFB7F9040038EE008A00EE100AF0EE5F
:10579000000AB8EEC00A30EE680AFEF763FF38EE82
:1057A000000A474630EE0BBA01E047E041E038F925
:1057B0001500F0EE000A00EE100AB8EEC00A30EE56
:1057C000490AFEF74FFF07EB4505B0EE408AB5F9F1
:1057D0000200F0EE000A00EE100AB8EEC00A30EE49
:1057E000690AFEF73FFFB5F9040038EE008A00EEC3
:1057F000100AF0EE000AB8EEC00A30EE4A0AFEF7D0
:1058000031FF38EE000A641C142C70EE2BBA9ADBC0
:1058100011499FED101A8BEE010ACBEE810A10EEB2
:10582000100A88420DDA0D4910EE900A884208DA13
:1058300001200AB0BDEC0A8BBDE8F0810120A07008
:1058400037E70020F5E7000000000000140000200A
:105850009C05002000007042000048430000F04119
:1058600000680649884208D105480078002804D01D
:10587000802204490448FDF7D9BA7047001401405A
:10588000130000200C0500203402002000B589B070
:10589000522000F035F81E2269460548FDF736FA19
:1058A0001E2269460348FDF7C1FA09B000BD000099
:1058B0007C0200203402002000B58DB0502000F0A2
:1058C0001FF8322269460548FDF720FA3222694660
:1058D0000348FDF7ABFA0DB000BD00007C020020CC
:1058E000340200204FF4807201490248FDF700BAEB
:1058F0008C0400207C020020402000F001B8000051
:1059000008B5A5218DF800108DF80100642302224E
:1059100069460248FDF73AFA08BD00007C02002003
:1059200010B52020FFF7ECFF0449012008700202A7
:10593000BDE8104002490348FDF7DAB91300002022
:105940008C0400207C02002010B52520FFF7D8FF32
:10595000034900200870BDE810400248FCF736BF3C
:10596000130000207C020020FBF710FCFEF7FCF87F
:10597000FDF72AFEFDF7F2FDFDF794FEFDF7BCFDF5
:10598000FDF7C4FEFDF712FFFDF78CFFFDF7A6FF44
:10599000FDF764FFFDF740FFFDF760FE00F068F8DB
:1059A0000A48FCF7CFFB0A48FCF7CCFB0948FCF798
:1059B000C9FB0948FCF7C6FB0848FCF7C3FB00F02D
:1059C0000FF8FFF78FFFFDF7C7FCFEE7CC000020C4
:1059D0005C01002014010020EC010020A401002043
:1059E00010B51A482DED048B9FED158ADFED158A51
:1059F0009FED159AB0EE481AF0EE680AB0EE490A2B
:105A0000FDF7C8FF1148B0EE481AF0EE680AB0EE94
:105A1000490A2430FDF7BEFF00210D48FCF7F4FDD4
:105A200004210B48FCF7F0FD08210948FCF7ECFDC8
:105A3000BDEC048B0C21BDE810400548FCF7E4BD2B
:105A4000CDCCCC3D0AD7A33CCDCC4C3F4404002068
:105A50001401002010B50446FAF715FC214682B265
:105A6000BDE810400148FDF7E1B900003402002014
:105A7000012202490248FDF749B900001200002046
:105A80003402002000061016000610160000000068
:105A900000000000010203040607080900000000DE
:105AA0000102030400000000000000000000B33FFA
:105AB000B2BE7D3A00002E40DFCF513800007E405C
:105AC000BF51FABA00E0A44019DAC3BA00E0C840F6
:105AD000C2ED8AB90040EB40CD1F2CBA0010064140
